:100000000C9432000C944F000C944F000C944F0051
:100010000C944F000C944F000C94EE000C944F0085
:100020000C944F000C944F000C944F000C9404055A
:100030000C9430050C944F000C944F000C944F001E
:100040000C944F000C944F000C944F000C944F00F4
:100050000C944F00DD01E101E501E901ED01F10141
:10006000F501F90111241FBECFE5D4E0DEBFCDBFFD
:1000700010E0A0E6B0E0E0E1FEE002C005900D92E5
:10008000A03DB107D9F721E0A0EDB0E001C01D927D
:10009000AD3AB207E1F70E94BB050C9406070C9439
:1000A00000000E94820460E080E00E946F0486E607
:1000B00090E00E94A80462E080E00E946F0487E75D
:1000C00090E00E94A80463E080E00E946F0487E84B
:1000D00090E00C94A8041F93CF93DF9300D000D03E
:1000E0001F92CDB7DEB7182F0E94820460E080E037
:1000F0000E946F0486E690E00E94A80462E080E01F
:100100000E946F0488E990E00E94A80462E08AE0FF
:100110000E946F044AE050E0BE016F5F7F4F812F65
:1001200090E00E946306CE0101960E94A8040F9001
:100130000F900F900F900F90DF91CF911F91089526
:1001400090E00E948C038130910561F0823091052E
:1001500029F0892B89F41092D200089581E08093D0
:10016000D20008951092D2008091D1008F5F8093C9
:10017000D10090E00C946B0008951F93CF93DF9310
:10018000182F0E94820460E080E00E946F0481EAE0
:1001900090E00E94A80462E080E00E946F0488E979
:1001A00090E00E94A80462E08AE00E946F044AE0A6
:1001B00050E0C0E0D0E0BE01812F90E00E946306D5
:1001C000CE010E94A80463E080E00E946F0481EBEE
:1001D00090E0DF91CF911F910C94A8041F920F9291
:1001E0000FB60F9211248F93879902C083E00CC041
:1001F000869902C082E008C0819903C01092600015
:1002000005C0809903C081E0809360008F910F90BA
:100210000FBE0F901F9018958091D1000E94BD00D5
:100220001092D0006091D000603498F441E080E0FA
:100230000E9464022FE788E391E0215080409040C3
:10024000E1F700C000008091D0008F5F8093D00064
:10025000E9CF80E00C9407021092D2001092D100F6
:1002600080E090E00E946B000E9402032FEF8BE47D
:100270009DE1215080409040E1F700C00000809156
:1002800060000E94A0008091D200813079F70C9428
:100290000C0127E030E061E070E090E09398AB0162
:1002A000022E02C0440F551F0A94E2F74823592337
:1002B000022E02C0559547950A94E2F7452B11F09E
:1002C000929A01C09298939A2150310938F7089573
:1002D0001F93CF93DF938230F0F4D42F162FC82FC3
:1002E0009498811106C080E00E94490180E00E943C
:1002F0004901812F0E9449018D2F0E94490180E010
:100300008C1740F480E00E94490180E00E9449017E
:1003100081E0F6CF949ADF91CF911F910895462FF7
:10032000623018F46CE00C9468010895462F603137
:1003300018F46AE00C9468010895462F623018F4AE
:100340006FE00C9468010895462F683018F46BE054
:100350000C9468010895462F69E00C946801462FBB
:1003600061E00C946801462F62E00C946801462F0E
:1003700063E00C946801462F64E00C946801462FFA
:1003800065E00C946801462F66E00C946801462FE6
:1003900067E00C946801462F68E00C9468010F93A5
:1003A0001F93E62F642F0E2F10E00830110528F55B
:1003B000F801E65DFF4F0C94ED051F910F910C9431
:1003C000AF011F910F910C94B3011F910F910C94E9
:1003D000B7011F910F910C94BB011F910F910C94C9
:1003E000BF011F910F910C94C3011F910F910C94A9
:1003F000C7011F910F910C94CB011F910F9108958C
:100400008A9A8B9A8C9A9298939894980895EF92DE
:10041000FF921F93CF93DF93182FC0E0D0E088E0C6
:10042000189F70011124F701EC0FFD1FE55EFE4FD0
:10043000108240E06C2F812F0E94CF012196C8309E
:10044000D10589F7DF91CF911F91FF90EF9008952B
:10045000CF92DF92EF92FF921F93CF93DF93823080
:10046000D8F4182F7B01C0E0D0E088E0189F60012D
:100470001124D701F70181917F01F601EC0FFD1FD7
:10048000E55EFE4F80834C916C2F812F0E94CF013F
:100490002196C830D10569F7DF91CF911F91FF9068
:1004A000EF90DF90CF900895823068F4683058F470
:1004B00098E0899FF0011124E60FF11DE55EFE4FE3
:1004C00040830C94CF010895603420F5362F3770A7
:1004D00098E0899FF0011124E30FF11DE55EFE4FC6
:1004E0002081962F969596959695442341F041E06C
:1004F00050E001C0440F9A95EAF7422B08C041E052
:1005000050E001C0440F9A95EAF740954223632FCB
:100510000C945402089541E00C94640240E00C9461
:1005200064020C949601CF930E940002C0E061E047
:100530008C2F0E948F0160E08C2F0E949D0160E053
:100540008C2F0E94AB016FE08C2F0E94960167E018
:100550008C2F0E94A4018C2F0E940702C13011F041
:10056000C1E0E5CFCF910895CF93DF93C82F80E00E
:1005700090E00E940702D0E06091610070E041E0ED
:1005800050E0CE010E9464021092D300E091D300AB
:1005900080912B01E81780F4F0E0E359FE4F608171
:1005A00070E041E050E0CE010E9464028091D300EF
:1005B0008F5F8093D300EACFDF91CF910895CF93DF
:1005C000DF93C0E4D0E00E945306BE010E94D9052B
:1005D00020912B0190E0921750F4E92FF0E0E359BD
:1005E000FE4F3081831301C080E49F5FF4CF80937E
:1005F0002C019093D300803431F380936100DF911C
:10060000CF91089583E080932B01EDE6F1E081E244
:10061000808389E1818381E182830E94DF020E94DD
:10062000DF0280E090E00E94070280E00C94B402B8
:10063000609161000E94B5058823A9F06091610076
:1006400070E040E050E080E090E00E9464022FEF14
:1006500081EE94E0215080409040E1F700C000001E
:100660000E94DF0281E0089541E050E060E070E028
:1006700080E090E00E9464022FEF81EE94E0215030
:1006800080409040E1F700C0000040E050E060E0B2
:1006900070E080E090E00C9464026034D8F5982F0C
:1006A000977049F4962F9770973029F48FEB90E06C
:1006B0000E9498050BC0877887FF03C08150886F20
:1006C0008F5F873031F4862F877019F40E943403CE
:1006D00021C020912B0130E02150310980E0062E0D
:1006E000000C770B482F50E0421753077CF491E041
:1006F000980FFA01E359FE4F408150E064177507E7
:1007000019F48093D300E2CF892FECCF8093D300EC
:1007100080E0089581E00895CF93813069F040F042
:10072000823071F0833079F4C0916D01C1500BC0FB
:10073000C0916D01C85007C0C0916D01CF5F03C06B
:10074000C0916D01C85F6C2F80916D010E944D03B7
:10075000811140C090912B01891760F4282F30E05F
:10076000F901E35DFE4FD901A359BE4F2C912083BF
:100770008F5FF2CFC0936D0181E0891760F4282F5D
:1007800030E0F901E359FE4FD901A45DBE4F2C9131
:1007900020838F5FF2CF8093D3008C2F0E941803A9
:1007A000882399F080912B018F5F80932B0190E03B
:1007B000FC01E459FE4FDC01A55DBE4F8C918083A6
:1007C00080E00E94B40281E006C080E00E94B40292
:1007D00080E001C082E0CF910895DB9A85E08A95A0
:1007E000F1F70000DB980895CF93DF931F92CDB708
:1007F000DEB7662311F0D99A01C0D998DA98D49A55
:10080000D59AD69AD79ADF98DE98DD98DC9887FD3E
:10081000DF9A86FDDE9A85FDDD9A84FDDC9A898368
:100820000E94ED03DF98DE98DD98DC98898183FDD6
:10083000DF9A82FDDE9A81FDDD9A80FDDC9A0E94BE
:10084000ED03DC9ADD9ADE9ADF9A0F90DF91CF916B
:100850000895D998DA9AD498D598D698D798DB9AEB
:1008600085E08A95F1F70000CC9B02C080E101C0D1
:1008700080E0CD998062CE998064CF998068DB98C2
:1008800095E09A95F1F70000DB9A95E09A95F1F7DB
:100890000000CC998160CD998260CE998460CF9917
:1008A0008860DB9808950E94290487FDFCCF85E1CC
:1008B0008A95F1F700000C942904CF93C82F0E9469
:1008C000530460E08C2FCF910C94F403CF93C82F86
:1008D0000E94530461E08C2FCF910C94F4036111BA
:1008E00002C0805809C0613011F4805405C06230E4
:1008F00011F4805701C080530C945D040E9453048E
:1009000090E0089581E00C945D0482E00C945D0415
:10091000CF93C82F0E945304982FCA30A1F480317E
:1009200048F080EC890F803138F09051903330F0EE
:1009300080E005C080E403C080E101C080E580580C
:10094000CF910C945D0461E08C2FCF910C94F40353
:10095000CF93DF93EC018991882319F00E948804DA
:10096000FACFDF91CF910895CF93DF93FC0184916B
:10097000EF012196882321F00E948804FE01F7CF21
:10098000DF91CF910895CF93C82FD19AD29AD39A5D
:10099000D49AD59AD69AD79A8FEF99EF0197F1F713
:1009A00000C00000DD9ADC9A0E94ED038FE19EE416
:1009B0000197F1F700C000000E94ED038FEF90E077
:1009C0000197F1F700C000000E94ED038FEF90E067
:1009D0000197F1F700C00000DC980E94ED038FEF53
:1009E00090E00197F1F700C0000088E20E945D04EA
:1009F00088E00E945D040E94820486E00E945D04FB
:100A00008C2FCF910C945D041F920F920FB60F9212
:100A100011242F938F939F93EF93FF938BB19CB1EE
:100A20008871E091D800EF5FEF712091D700E21755
:100A300039F0E093D800F0E0E552FF4F908301C019
:100A400082E09091D600892B8093D600FF91EF91A0
:100A50009F918F912F910F900FBE0F901F9018951F
:100A60001F920F920FB60F9211248F939F93EF93C3
:100A7000FF939091DA008091D900981761F0E0918E
:100A8000D900EF5FEF71E093D900F0E0E550FF4F40
:100A900080818CB901C05598FF91EF919F918F9102
:100AA0000F900FBE0F901F9018951092DA001092C1
:100AB000D9001092D8001092D70097FF02C022E010
:100AC0002BB9907890BD89B988E98AB986E880BD4C
:100AD00008959091D8008091D7009817A9F090912F
:100AE000D7009F5F9F71E92FF0E0E552FF4F208113
:100AF0008091D6009093D7001092D60090E0982F66
:100B00008827820F911D089580E091E008959091CB
:100B1000DA009F5F9F712091D9009217E1F3E92FCE
:100B2000F0E0E550FF4F80839093DA00559A0895E6
:100B3000CF93DF93EC018991882319F00E948705F8
:100B4000FACFDF91CF910895CF93DF93FC01849189
:100B5000EF012196882321F00E948705FE01F7CF3F
:100B6000DF91CF91089580E00895F82FE62FEF17D9
:100B7000D1F781E008958EB58A608EBD1DBC1CBC86
:100B800087EA91E69BBD8ABD89B7806189BF789469
:100B900082B3836C82BB83E390E00E9455050E9480
:100BA00000028CE00E94C3040E9493020E942C0168
:100BB000FFCF97FB072E16F4009407D077FD09D0DE
:100BC0000E94F30507FC05D03EF4909581959F4F58
:100BD0000895709561957F4F0895EE0FFF1F059062
:100BE000F491E02D0994AA1BBB1B51E107C0AA1F79
:100BF000BB1FA617B70710F0A61BB70B881F991FBE
:100C00005A95A9F780959095BC01CD0108958F92D2
:100C10009F92AF92BF92CF92DF92EF92FF92CF93CB
:100C2000DF93EC01688179818A819B81611571056F
:100C30008105910521F464E279ED8BE597E02DE1E2
:100C400033EF41E050E00E94A30649015A019B01A5
:100C5000AC01A7EAB1E40E94C2066B017C01ACEED4
:100C6000B4EFA50194010E94D006DC01CB018C0DEC
:100C70009D1DAE1DBF1DB7FF03C00197A109B04860
:100C800088839983AA83BB839F77DF91CF91FF905D
:100C9000EF90DF90CF90BF90AF909F908F9008958E
:100CA0000E940706089582E690E00E9407060895D4
:100CB000A0E0B0E08093620090936300A093640092
:100CC000B093650008954532510520F4423010F08C
:100CD0000C946E06FB011082CB010895BB274A30AD
:100CE00031F4992322F4BDE2909581959F4F0C94A5
:100CF0007A06BB27FB015527AA27880F991FAA1F31
:100D0000A41710F0A41B83955051B9F7A05DAA3326
:100D100008F0A95DA193009779F7B111B1931192F1
:100D2000CB010C949306DC01FC01672F71917723B2
:100D3000E1F7329704C07C916D9370836291AE1796
:100D4000BF07C8F30895052E97FB1EF400940E9478
:100D5000BA0657FD07D00E94D50607FC03D04EF413
:100D60000C94BA0650954095309521953F4F4F4FC2
:100D70005F4F089590958095709561957F4F8F4F47
:100D80009F4F08950E94F706A59F900DB49F900D68
:100D9000A49F800D911D11240895B7FF0C94C206E5
:100DA0000E94C206821B930B0895A1E21A2EAA1B71
:100DB000BB1BFD010DC0AA1FBB1FEE1FFF1FA2170B
:100DC000B307E407F50720F0A21BB30BE40BF50B08
:100DD000661F771F881F991F1A9469F76095709591
:100DE000809590959B01AC01BD01CF010895A29F14
:100DF000B001B39FC001A39F700D811D1124911DEF
:100E0000B29F700D811D1124911D0895F894FFCF9C
:100E100002FF010000002A2A2A534E414B45204779
:100E2000414D452A2A2A00507265737320726573FA
:100E3000657420746F200073746172742061206E79
:100E400065772067616D650053636F72653A202096
:100E5000002A2A2A47414D45204F5645522A2A2A20
:100E60000020205072657373207265736574004EA4
:100E70004152415A494C20444F204C4556410000B4
:00000001FF
